{
    "_format": "hh-sol-artifact-1",
    "contractName": "Transactions",
    "sourceName": "contracts/Transactions.sol",
    "abi": [
        {
            "anonymous": false,
            "inputs": [
                {
                    "indexed": false,
                    "internalType": "address",
                    "name": "from",
                    "type": "address"
                },
                {
                    "indexed": false,
                    "internalType": "address",
                    "name": "receiver",
                    "type": "address"
                },
                {
                    "indexed": false,
                    "internalType": "uint256",
                    "name": "amount",
                    "type": "uint256"
                },
                {
                    "indexed": false,
                    "internalType": "string",
                    "name": "message",
                    "type": "string"
                },
                {
                    "indexed": false,
                    "internalType": "uint256",
                    "name": "timestamp",
                    "type": "uint256"
                },
                {
                    "indexed": false,
                    "internalType": "string",
                    "name": "heyword",
                    "type": "string"
                }
            ],
            "name": "Trnasfer",
            "type": "event"
        },
        {
            "inputs": [
                {
                    "internalType": "address payable",
                    "name": "receiver",
                    "type": "address"
                },
                {
                    "internalType": "uint256",
                    "name": "amount",
                    "type": "uint256"
                },
                {
                    "internalType": "string",
                    "name": "message",
                    "type": "string"
                },
                {
                    "internalType": "string",
                    "name": "keyword",
                    "type": "string"
                }
            ],
            "name": "addToBlockchain",
            "outputs": [],
            "stateMutability": "nonpayable",
            "type": "function"
        },
        {
            "inputs": [],
            "name": "getAllTransactions",
            "outputs": [
                {
                    "components": [
                        {
                            "internalType": "address",
                            "name": "sender",
                            "type": "address"
                        },
                        {
                            "internalType": "address",
                            "name": "receiver",
                            "type": "address"
                        },
                        {
                            "internalType": "uint256",
                            "name": "amount",
                            "type": "uint256"
                        },
                        {
                            "internalType": "string",
                            "name": "messages",
                            "type": "string"
                        },
                        {
                            "internalType": "uint256",
                            "name": "timestamp",
                            "type": "uint256"
                        },
                        {
                            "internalType": "string",
                            "name": "keyword",
                            "type": "string"
                        }
                    ],
                    "internalType": "struct Transactions.TransferStruct[]",
                    "name": "",
                    "type": "tuple[]"
                }
            ],
            "stateMutability": "view",
            "type": "function"
        },
        {
            "inputs": [],
            "name": "getTransactioCount",
            "outputs": [
                {
                    "internalType": "uint256",
                    "name": "",
                    "type": "uint256"
                }
            ],
            "stateMutability": "view",
            "type": "function"
        }
    ],
    "bytecode": "0x608060405234801561001057600080fd5b50610c0c806100206000396000f3fe608060405234801561001057600080fd5b50600436106100405760003560e01c8062fcf2a11461004557806327506f5314610063578063cc2d7ead14610081575b600080fd5b61004d61009d565b60405161005a91906108da565b60405180910390f35b61006b6100a6565b60405161007891906108b8565b60405180910390f35b61009b600480360381019061009691906105e0565b6102e9565b005b60008054905090565b60606001805480602002602001604051908101604052809291908181526020016000905b828210156102e057838290600052602060002090600602016040518060c00160405290816000820160009054906101000a900473ffffffffffffffffffffffffffffffffffffffff1673ffffffffffffffffffffffffffffffffffffffff1673ffffffffffffffffffffffffffffffffffffffff1681526020016001820160009054906101000a900473ffffffffffffffffffffffffffffffffffffffff1673ffffffffffffffffffffffffffffffffffffffff1673ffffffffffffffffffffffffffffffffffffffff168152602001600282015481526020016003820180546101b390610ad8565b80601f01602080910402602001604051908101604052809291908181526020018280546101df90610ad8565b801561022c5780601f106102015761010080835404028352916020019161022c565b820191906000526020600020905b81548152906001019060200180831161020f57829003601f168201915b505050505081526020016004820154815260200160058201805461024f90610ad8565b80601f016020809104026020016040519081016040528092919081815260200182805461027b90610ad8565b80156102c85780601f1061029d576101008083540402835291602001916102c8565b820191906000526020600020905b8154815290600101906020018083116102ab57829003601f168201915b505050505081525050815260200190600101906100ca565b50505050905090565b60016000808282546102fb91906109bc565b9250508190555060016040518060c001604052803373ffffffffffffffffffffffffffffffffffffffff1681526020018673ffffffffffffffffffffffffffffffffffffffff16815260200185815260200184815260200142815260200183815250908060018154018082558091505060019003906000526020600020906006020160009091909190915060008201518160000160006101000a81548173ffffffffffffffffffffffffffffffffffffffff021916908373ffffffffffffffffffffffffffffffffffffffff16021790555060208201518160010160006101000a81548173ffffffffffffffffffffffffffffffffffffffff021916908373ffffffffffffffffffffffffffffffffffffffff16021790555060408201518160020155606082015181600301908051906020019061043a9291906104ab565b506080820151816004015560a08201518160050190805190602001906104619291906104ab565b5050507f8c90310d84f43c9d50b5de7c3147b58b5d6fe9a737ee2423ff9379073117436133858585428660405161049d96959493929190610849565b60405180910390a150505050565b8280546104b790610ad8565b90600052602060002090601f0160209004810192826104d95760008555610520565b82601f106104f257805160ff1916838001178555610520565b82800160010185558215610520579182015b8281111561051f578251825591602001919060010190610504565b5b50905061052d9190610531565b5090565b5b8082111561054a576000816000905550600101610532565b5090565b600061056161055c84610926565b6108f5565b90508281526020810184848401111561057957600080fd5b610584848285610a96565b509392505050565b60008135905061059b81610ba8565b92915050565b600082601f8301126105b257600080fd5b81356105c284826020860161054e565b91505092915050565b6000813590506105da81610bbf565b92915050565b600080600080608085870312156105f657600080fd5b60006106048782880161058c565b9450506020610615878288016105cb565b935050604085013567ffffffffffffffff81111561063257600080fd5b61063e878288016105a1565b925050606085013567ffffffffffffffff81111561065b57600080fd5b610667878288016105a1565b91505092959194509250565b600061067f838361079b565b905092915050565b61069081610a60565b82525050565b61069f81610a12565b82525050565b6106ae81610a12565b82525050565b60006106bf82610966565b6106c98185610989565b9350836020820285016106db85610956565b8060005b8581101561071757848403895281516106f88582610673565b94506107038361097c565b925060208a019950506001810190506106df565b50829750879550505050505092915050565b600061073482610971565b61073e818561099a565b935061074e818560208601610aa5565b61075781610b97565b840191505092915050565b600061076d82610971565b61077781856109ab565b9350610787818560208601610aa5565b61079081610b97565b840191505092915050565b600060c0830160008301516107b36000860182610696565b5060208301516107c66020860182610696565b5060408301516107d9604086018261082b565b50606083015184820360608601526107f18282610729565b9150506080830151610806608086018261082b565b5060a083015184820360a086015261081e8282610729565b9150508091505092915050565b61083481610a56565b82525050565b61084381610a56565b82525050565b600060c08201905061085e60008301896106a5565b61086b6020830188610687565b610878604083018761083a565b818103606083015261088a8186610762565b9050610899608083018561083a565b81810360a08301526108ab8184610762565b9050979650505050505050565b600060208201905081810360008301526108d281846106b4565b905092915050565b60006020820190506108ef600083018461083a565b92915050565b6000604051905081810181811067ffffffffffffffff8211171561091c5761091b610b68565b5b8060405250919050565b600067ffffffffffffffff82111561094157610940610b68565b5b601f19601f8301169050602081019050919050565b6000819050602082019050919050565b600081519050919050565b600081519050919050565b6000602082019050919050565b600082825260208201905092915050565b600082825260208201905092915050565b600082825260208201905092915050565b60006109c782610a56565b91506109d283610a56565b9250827fffffffffffffffffffffffffffffffffffffffffffffffffffffffffffffffff03821115610a0757610a06610b0a565b5b828201905092915050565b6000610a1d82610a36565b9050919050565b6000610a2f82610a36565b9050919050565b600073ffffffffffffffffffffffffffffffffffffffff82169050919050565b6000819050919050565b6000610a6b82610a72565b9050919050565b6000610a7d82610a84565b9050919050565b6000610a8f82610a36565b9050919050565b82818337600083830152505050565b60005b83811015610ac3578082015181840152602081019050610aa8565b83811115610ad2576000848401525b50505050565b60006002820490506001821680610af057607f821691505b60208210811415610b0457610b03610b39565b5b50919050565b7f4e487b7100000000000000000000000000000000000000000000000000000000600052601160045260246000fd5b7f4e487b7100000000000000000000000000000000000000000000000000000000600052602260045260246000fd5b7f4e487b7100000000000000000000000000000000000000000000000000000000600052604160045260246000fd5b6000601f19601f8301169050919050565b610bb181610a24565b8114610bbc57600080fd5b50565b610bc881610a56565b8114610bd357600080fd5b5056fea264697066735822122042e6b6f5fd6466f17dd6a12ada572d564eededdc03288b19fd36d9f1ca28c23564736f6c63430008000033",
    "linkReferences": {},
    "deployedLinkReferences": {}
}